:100000000C945A000C9464000C9464000C946400EA
:100010000C9464000C9464000C9464000C946400D0
:100020000C9464000C9464000C9464000C946400C0
:100030000C9464000C9464000C9464000C946400B0
:100040000C9464000C9464000C9464000C946400A0
:100050000C9464000C9464000C9464000C94640090
:100060000C9464000C9464000C9464000C94640080
:100070000C9464000C9464000C9464000C94640070
:100080000C9464000C9464000C9464000C94640060
:100090000C9464000C9464000C9464000C94640050
:1000A0000C9464000C9464000C9464000C94640040
:1000B0000C94640011241FBECFEFD8E0DEBFCDBF8B
:1000C0000E9466000C94BF000C9400008FEF84B96E
:1000D00017B885B916BC14BC85B5856085BD98E098
:1000E00016BC20E030E086B58F3F21F416BC2F5FB0
:1000F0003F4F17C0339915C02B9A2A9816BC28E792
:1001000030E007C086B58F3FE9F716BC21503109B2
:1001100021F086B58F3FB1F7F8CF2A9A28E730E073
:1001200003C029313105FCF22431310524F586B5AF
:100130008F3F21F416BC2F5F3F4F1AC0339918C070
:100140002B9A2A9816BC20E030E00DC086B58F3F70
:1001500021F028373105D4F30AC016BC2F5F3F4F7A
:100160002837310521F086B58F3F81F7F6CF2A9ADF
:1001700024313105E4F285B1892785B9B1CFF894EE
:02018000FFCFAF
:00000001FF
