S01000004D69647465726D322E7372656310
S11300000C945A000C9412010C942E010C94770059
S11300100C9477000C9477000C9477000C94770080
S11300200C9477000C9477000C945F010C94770087
S11300300C9477000C9477000C9477000C94770060
S11300400C944A010C9477000C9477000C9477007C
S11300500C9477000C9477000C9477000C94770040
S11300600C9477000C9477000C9477000C94770030
S11300700C9477000C9477000C9477000C94770020
S11300800C9482010C9477000C9477000C94770004
S11300900C9477000C9477000C9477000C94770000
S11300A00C9477000C9477000C94A5010C947700C1
S11300B00C94770011241FBECFEFD8E0DEBFCDBF74
S11300C011E0A0E0B1E0E0E9F4E002C005900D9297
S11300D0AA31B107D9F721E0AAE1B1E001C01D922C
S11300E0A032B207E1F70E9404020C9446020C9479
S11300F00000509A87E690E09093C5008093C40076
S1130100E2ECF0E08081866080830895509880E47A
S113011080937C0087EA80937A0081E080937B005F
S1130120089587E690E09093C5008093C400E1ECC5
S1130130F0E0808188648083509A0895CF93DF93A0
S1130140FC012081222369F0DC011196E0ECF0E04F
S1130150C6ECD0E0908195FFFDCF28832D9121112D
S1130160F9CFDF91CF91089595B188E0892785B9BA
S113017095B180E1892785B9089584B5816884BDE6
S113018085B58C6085BDEEE6F0E08081816080837A
S113019016BC17BC089557981092850010928400DD
S11301A0E1E8F0E0808187648083EFE6F0E080811D
S11301B0806280830895569810929500109294005E
S11301C0E1E9F0E0808187648083E1E7F0E0808109
S11301D08062808308951092A5001092A400E1EA41
S11301E0F0E080818B608083E2E7F0E080818260D0
S11301F0808387EA91E69093A9008093A8000895EC
S11302000E94DB000E94EB0081E080931C0180913E
S11302101C018111FCCF5C985D9880911A0190912A
S11302201B0108951F920F920FB60F9211248F9302
S11302309F93EF93FF9380911C01882331F0E1E9B0
S1130240F0E0908181E089278083FF91EF919F9175
S11302508F910F900FBE0F901F9018951F920F92C1
S11302600FB60F9211248F939F93EF93FF93809176
S11302701D01882331F0E1E8F0E0908181E08927D5
S11302808083FF91EF919F918F910F900FBE0F90FC
S11302901F9018951F920F920FB60F9211248F93EF
S11302A0EF93FF93EAE7F0E0808188608083FF9119
S11302B0EF918F910F900FBE0F901F9018951F9282
S11302C00F920FB60F9211248F939F93EF93FF9386
S11302D0EFE6F0E080818F7D808310921D01809194
S11302E086009091870090931F0180931E011092C5
S11302F01C01FF91EF919F918F910F900FBE0F9072
S11303001F9018951F920F920FB60F9211248F937E
S11303109F93EF93FF93E1E7F0E080818F7D8083EB
S113032010921C01809196009091970090931B016C
S113033080931A0110921D01FF91EF919F918F916B
S11303400F900FBE0F901F9018951F920F920FB62B
S11303500F9211248F93EF93FF93E1E7F0E08081F4
S11303608083449A80911D018111459AFF91EF91F8
S11303708F910F900FBE0F901F9018951DBA109279
S1130380690008950E94DB000E94EB00E99AE9E607
S1130390F0E080818260808381E080931C01809101
S11303A01C018111FCCF0E94BE015C985D98809174
S11303B01A0190911B0108950E94CB000E94DB005A
S11303C00E94EB008DB383608DBBE9E6F0E0808191
S11303D08960808381E080931C0180931D0180915A
S11303E01C018111FCCF80911D018111F8CF0E9465
S11303F0BE015C985D9880911E0190911F018091CF
S11304001A0190911B0108950E9486000E94910098
S11304100E9479000E94BD000E94EB00789484B190
S1130420886184B92B982C9A52985A9853985B985F
S1130430549A5C98559A5D9885E091E00E949E00DC
S11304400E94000183E091E00E949E008CE091E014
S11304500E949E000E94C20183E091E00E949E00DF
S113046083E191E00E949E000E94DC0183E091E020
S11304700E949E002FEF8BE792E92150804090402C
S1130480E1F700C000000E94B400D6CFF894FFCF7B
S113049025660D0A0052504D78313A0052504D787D
S10D04A0323A0052504D78343A000D
S9030000FC
