S00C0000444134412E737265631E
S11300000C945A000C946C000C946C000C946C00CE
S11300100C94D2000C946C000C946C000C946C0046
S11300200C946C000C946C000C946C000C946C009C
S11300300C946C000C946C000C946C000C946C008C
S11300400C946C000C946C000C946C000C946C007C
S11300500C946C000C946C000C946C000C946C006C
S11300600C946C000C946C000C946C000C946C005C
S11300700C946C000C946C000C946C000C946C004C
S11300800C946C000C946C000C946C000C946C003C
S11300900C946C000C946C000C946C000C946C002C
S11300A00C946C000C946C000C946C000C946C001C
S11300B00C946C0011241FBECFEFD8E0DEBFCDBF7F
S11300C021E0A0E0B1E001C01D92A330B207E1F746
S11300D00E94BE000C9494020C94000083E884BD3A
S11300E083E085BD089580E480937C0087EE80934F
S11300F07A000895EAE7F0E080818064808380815B
S113010084FFFDCFEAE7F0E0808180618083809105
S113011078009091790008950E947A00BC01990FAB
S1130120880B990B0E949B0120E030EC4FE754E4CC
S11301300E94F80020E030E04EEB52E40E942702D7
S11301400E946A01709302016093010160910101B0
S11301507091020180E090E00E94990120E030E07B
S113016048EC52E40E94F80020E030E04FE753E40A
S11301700E9427020E946A0167BD0895229A87B1EE
S11301808C7F87B9569A2A9A419A82E080936800B4
S113019080936C0078940E946E000E9473000E9409
S11301A08C00FDCF1F920F920FB60F9211248F93E4
S11301B09F93319916C080910001811103C015BC31
S11301C0569807C080910001882319F083E085BD0B
S11301D0569A82E08BBB9091000181E0892780933D
S11301E000019F918F910F900FBE0F901F90189553
S11301F00E940C010C94ED010E94E60158F00E944B
S1130200DF0140F029F45F3F29F00C94D60151112D
S11302100C9421020C94DC010E94FE0168F39923E2
S1130220B1F3552391F3951B550BBB27AA276217EE
S11302307307840738F09F5F5F4F220F331F441FFB
S1130240AA1FA9F335D00E2E3AF0E0E832D091502F
S11302505040E695001CCAF72BD0FE2F29D0660F1C
S1130260771F881FBB1F261737074807AB07B0E85F
S113027009F0BB0B802DBF01FF2793585F4F3AF065
S11302809E3F510578F00C94D6010C9421025F3FF7
S1130290E4F3983ED4F3869577956795B795F795EB
S11302A09F5FC9F7880F911D9695879597F90895D3
S11302B0E1E0660F771F881FBB1F6217730784076F
S11302C0BA0720F0621B730B840BBA0BEE1F88F77E
S11302D0E09508950E94060288F09F5798F0B92F80
S11302E09927B751B0F0E1F0660F771F881F991F67
S11302F01AF0BA95C9F714C0B13091F00E942002E7
S1130300B1E008950C942002672F782F8827B85FF6
S113031039F0B93FCCF3869577956795B395D9F7BE
S11303203EF490958095709561957F4F8F4F9F4FC8
S11303300895E89409C097FB3EF4909580957095D4
S113034061957F4F8F4F9F4F9923A9F0F92F96E91D
S1130350BB279395F695879577956795B795F11192
S1130360F8CFFAF4BB0F11F460FF1BC06F5F7F4F2F
S11303708F4F9F4F16C0882311F096E911C0772341
S113038021F09EE8872F762F05C0662371F096E84A
S1130390862F70E060E02AF09A95660F771F881F19
S11303A0DAF7880F9695879597F9089597F99F67D7
S11303B080E870E060E008959FEF80EC08950024E9
S11303C00A941616170618060906089500240A94B6
S11303D012161306140605060895092E0394000C3C
S11303E011F4882352F0BB0F40F4BF2B11F460FFCB
S11303F004C06F5F7F4F8F4F9F4F089557FD9058F4
S1130400440F551F59F05F3F71F04795880F97FBD4
S1130410991F61F09F3F79F087950895121613068E
S11304201406551FF2CF4695F1DF08C016161706BD
S11304301806991FF1CF86957105610508940895F2
S1130440E894BB2766277727CB0197F908950E9484
S11304503A020C94ED010E94DF0138F00E94E6019B
S113046020F0952311F00C94D6010C94DC01112496
S11304700C9421020E94FE0170F3959FC1F3950F25
S113048050E0551F629FF001729FBB27F00DB11D14
S1130490639FAA27F00DB11DAA1F649F6627B00DA4
S11304A0A11D661F829F2227B00DA11D621F739F8D
S11304B0B00DA11D621F839FA00D611D221F749F9B
S11304C03327A00D611D231F849F600D211D822FE2
S11304D0762F6A2F11249F5750409AF0F1F0882309
S11304E04AF0EE0FFF1FBB1F661F771F881F915036
S11304F05040A9F79E3F510580F00C94D6010C940E
S113050021025F3FE4F3983ED4F38695779567958F
S1130510B795F795E7959F5FC1F7FE2B880F911D5F
S10F05209695879597F90895F894FFCFFD
S9030000FC
