S00F0000444135415F54312E7372656336
S11300000C945A000C9477000C9477000C947700AD
S11300100C9477000C9477000C9477000C94770080
S11300200C9477000C9477000C9477000C94770070
S11300300C9477000C9477000C9477000C94770060
S11300400C9477000C9477000C9477000C94770050
S11300500C9477000C9477000C9477000C94770040
S11300600C9477000C9477000C9477000C94770030
S11300700C9477000C9477000C9477000C94770020
S11300800C9477000C9477000C9477000C94770010
S11300900C9477000C9477000C9477000C94770000
S11300A00C9477000C9477000C9477000C947700F0
S11300B00C94770011241FBECFEFD8E0DEBFCDBF74
S11300C011E0A0E0B1E0E2E0F4E002C005900D929E
S11300D0A030B107D9F721E0A0E0B1E001C01D9242
S11300E0A230B207E1F70E94CB000C94FF010C94FC
S11300F00000209A8AB180698AB90895EAE7F0E09D
S1130100808180648083808184FFFDCFEAE7F0E012
S11301108081806180838091780090917900089536
S11301203C9884EC80937C0087E880937A0010925A
S11301307B00089527E030E090E0AC01022E02C07D
S1130140559547950A94E2F740FD03C045B115B8AB
S113015001C0289A5F9A4BB11BB82150310968F746
S113016008950E947E00BC0180E090E00E9404019A
S11301702EE037E34CED5DE30E946A010E94D50056
S1130180709301016093000180910001909101013D
S11301900E949A0008950E9479000E9490000E9493
S11301A07E000E94B1005C9AFACF0E94490188F057
S11301B09F5798F0B92F9927B751B0F0E1F0660F27
S11301C0771F881F991F1AF0BA95C9F714C0B13068
S11301D091F00E946301B1E008950C946301672FCC
S11301E0782F8827B85F39F0B93FCCF38695779597
S11301F06795B395D9F73EF4909580957095619580
S11302007F4F8F4F9F4F0895E89409C097FB3EF4AA
S113021090958095709561957F4F8F4F9F4F99234F
S1130220A9F0F92F96E9BB279395F69587957795CD
S11302306795B795F111F8CFFAF4BB0F11F460FF8D
S11302401BC06F5F7F4F8F4F9F4F16C0882311F0E5
S113025096E911C0772321F09EE8872F762F05C0F9
S1130260662371F096E8862F70E060E02AF09A9594
S1130270660F771F881FDAF7880F9695879597F989
S1130280089557FD9058440F551F59F05F3F71F082
S11302904795880F97FB991F61F09F3F79F08795E9
S11302A00895121613061406551FF2CF4695F1DF72
S11302B008C0161617061806991FF1CF8695710502
S11302C0610508940895E894BB2766277727CB0136
S11302D097F908950E947D010C94EE010E94E001BB
S11302E038F00E94E70120F0952311F00C94D70117
S11302F00C94DD0111240C9464010E94410170F3FB
S1130300959FC1F3950F50E0551F629FF001729FB6
S1130310BB27F00DB11D639FAA27F00DB11DAA1FC5
S1130320649F6627B00DA11D661F829F2227B00D12
S1130330A11D621F739FB00DA11D621F839FA00D9D
S1130340611D221F749F3327A00D611D231F849FED
S1130350600D211D822F762F6A2F11249F57504044
S11303609AF0F1F088234AF0EE0FFF1FBB1F661FBF
S1130370771F881F91505040A9F79E3F510580F088
S11303800C94D7010C9464015F3FE4F3983ED4F3DA
S1130390869577956795B795F795E7959F5FC1F72C
S11303A0FE2B880F911D9695879597F9089597F9D7
S11303B09F6780E870E060E008959FEF80EC089507
S11303C000240A9416161706180609060895002430
S11303D00A9412161306140605060895092E0394AA
S11303E0000C11F4882352F0BB0F40F4BF2B11F41E
S11303F060FF04C06F5F7F4F8F4F9F4F0895F89445
S1050400FFCF28
S9030000FC
