S0130000444132435F5461736B5F322E7372656394
S11300000C945A000C9477000C9477000C947700AD
S11300100C9477000C9477000C9477000C94770080
S11300200C9477000C9477000C9477000C94770070
S11300300C9477000C9477000C9477000C94770060
S11300400C9487000C9477000C9477000C94770040
S11300500C9477000C9477000C9477000C94770040
S11300600C9477000C9477000C9477000C94770030
S11300700C9477000C9477000C9477000C94770020
S11300800C9477000C9477000C9477000C94770010
S11300900C9477000C9477000C9477000C94770000
S11300A00C9477000C9477000C9477000C947700F0
S11300B00C94770011241FBECFEFD8E0DEBFCDBF74
S11300C011E0A0E0B1E0E0ECF1E002C005900D9297
S11300D0A230B107D9F721E0A2E0B1E001C01D923E
S11300E0A430B207E1F70E9479000C94DE000C946E
S11300F000008FEF84B917B885B916BC14BC85B558
S1130100856085BD81E080936E007894FFCF1F9257
S11301100F920FB60F9211242F933F938F939F93B7
S113012080910201909103010196909303018093C1
S1130130020120910201309103018091000190910C
S113014001012817390781F595B188E0892785B918
S11301502A9A8091000190910101459789F489E1DF
S113016090E09093010180930001339919C02A987B
S113017088E790E090930101809300012B9A10C0CE
S113018085E190E09093010180930001339908C0C8
S11301902A9888E790E090930101809300012B9ABC
S11301A0109203011092020116BC9F918F913F910E
S11301B02F910F900FBE0F901F901895F894FFCFBA
S10501C0150024
S9030000FC
