:100000000C945A000C946C000C946C000C946C00D2
:100010000C946C000C946C000C946C000C946C00B0
:100020000C946C000C946C000C946C000C946C00A0
:100030000C946C000C946C000C946C000C946C0090
:100040000C946C000C946C000C946C000C946C0080
:100050000C946C000C946C000C946C000C946C0070
:100060000C946C000C946C000C946C000C946C0060
:100070000C946C000C946C000C946C000C946C0050
:100080000C946C000C946C000C946C000C946C0040
:100090000C946C000C946C000C946C000C946C0030
:1000A0000C946C000C946C000C946C000C946C0020
:1000B0000C946C0011241FBECFEFD8E0DEBFCDBF83
:1000C00021E0A0E0B1E001C01D92A430B207E1F749
:1000D0000E94B8000C9455020C94000080E48093B8
:1000E0007C0087E880937A000895EAE7F0E0808159
:1000F00080648083808184FFFDCFEAE7F0E0808127
:1001000080618083609178007091790080E090E058
:100110000E94A3010895E0E8F0E08081826A808374
:10012000E1E8F0E080818B61808387E893E1909340
:1001300087008093860008950E94750020E030ECCF
:100140004FE754E40E9402016093000170930101A3
:10015000809302019093030160910001709101016D
:1001600080910201909103010E947401CB010895D6
:1001700084B1847084B938980E948B000E946E000C
:10018000C8E8D0E007E112E00E949C006091000105
:1001900070910101809102019091030120E030E013
:1001A000A9010E94FD0081110CC0198218822FEF55
:1001B00089EF90E0215080409040E1F700C00000BE
:1001C000E3CF609100017091010180910201909153
:1001D000030120E030E04FE753E40E94FD0081116D
:1001E000D3CF198308832FEF89EF90E0215080400F
:1001F0009040E1F700C00000C7CF0E94E00108F482
:1002000081E008950E9416010C941B020E941402C2
:1002100058F00E940D0240F029F45F3F29F00C9441
:10022000040251110C944F020C940A020E942C02F9
:1002300068F39923B1F3552391F3951B550BBB2715
:10024000AA2762177307840738F09F5F5F4F220F5A
:10025000331F441FAA1FA9F335D00E2E3AF0E0E851
:1002600032D091505040E695001CCAF72BD0FE2F9B
:1002700029D0660F771F881FBB1F2617370748072F
:10028000AB07B0E809F0BB0B802DBF01FF279358E7
:100290005F4F3AF09E3F510578F00C9404020C94A5
:1002A0004F025F3FE4F3983ED4F3869577956795C8
:1002B000B795F7959F5FC9F7880F911D969587951C
:1002C00097F90895E1E0660F771F881FBB1F62173B
:1002D00073078407BA0720F0621B730B840BBA0BF9
:1002E000EE1F88F7E09508950E94340288F09F572A
:1002F00098F0B92F9927B751B0F0E1F0660F771F4A
:10030000881F991F1AF0BA95C9F714C0B13091F03F
:100310000E944E02B1E008950C944E02672F782F90
:100320008827B85F39F0B93FCCF386957795679504
:10033000B395D9F73EF490958095709561957F4F70
:100340008F4F9F4F0895E89409C097FB3EF4909516
:100350008095709561957F4F8F4F9F4F9923A9F09E
:10036000F92F96E9BB279395F6958795779567952D
:10037000B795F111F8CFFAF4BB0F11F460FF1BC071
:100380006F5F7F4F8F4F9F4F16C0882311F096E904
:1003900011C0772321F09EE8872F762F05C06623B2
:1003A00071F096E8862F70E060E02AF09A95660F6B
:1003B000771F881FDAF7880F9695879597F9089524
:1003C000990F0008550FAA0BE0E8FEEF1616170666
:1003D000E807F907C0F012161306E407F50798F0CE
:1003E000621B730B840B950B39F40A2661F0232BE7
:1003F000242B252B21F408950A2609F4A140A69563
:100400008FEF811D811D089597F99F6780E870E047
:1004100060E008959FEF80EC089500240A9416167A
:10042000170618060906089500240A9412161306E2
:10043000140605060895092E0394000C11F4882370
:1004400052F0BB0F40F4BF2B11F460FF04C06F5F8C
:100450007F4F8F4F9F4F089557FD9058440F551F62
:1004600059F05F3F71F04795880F97FB991F61F036
:100470009F3F79F087950895121613061406551FAD
:10048000F2CF4695F1DF08C0161617061806991F19
:10049000F1CF86957105610508940895E894BB270E
:0E04A00066277727CB0197F90895F894FFCFD0
:00000001FF
