S00C0000444135412E737265631D
S11300000C949B000C94B8000C94B8000C94B800A9
S11300100C94B8000C94B8000C94B8000C94B8007C
S11300200C94B8000C94B8000C94B8000C94B8006C
S11300300C94B8000C94B8000C94B8000C94B8005C
S11300400C94B8000C94B8000C94B8000C94B8004C
S11300500C94B8000C94B8000C94B8000C94B8003C
S11300600C94B8000C94B8000C94B8000C94B8002C
S11300700C94B8000C94B8000C94B8000C94B8001C
S11300800C94B8000C94B8000C94B8000C94B8000C
S11300900C94B8000C94B8000C94B8000C94B800FC
S11300A00C94B8000C94B8000C94B8000C94B800EC
S11300B00C94B80007634236B79BD8A71A39685620
S11300C018AEBAAB558C1D3CB7CC5763BD6DEDFD76
S11300D0753EF6177231BF000000803F0800000033
S11300E0BE922449123EABAAAA2ABECDCCCC4C3E29
S11300F000000080BEABAAAAAA3E00000000BF0018
S11301000000803F0000000000084178D3BB438713
S1130110D1133D190E3CC3BD4282AD2B3E68EC8227
S113012076BED98FE1A93E4C80EFFFBE01C4FF7FAC
S11301303F000000000011241FBECFEFD8E0DEBF57
S1130140CDBF11E0A0E0B1E0E8E4FAE002C0059020
S11301500D92AA30B107D9F721E0AAE0B1E001C0BD
S11301601D92AF30B207E1F70E948B010C94220577
S11301700C9400003C9884EC80937C0087E8809386
S11301807A0010927B000895EAE7F0E080818064B1
S11301908083808184FFFDCFEAE7F0E08081806185
S11301A080838091780090917900089584B1886269
S11301B084B9549A5C9887E08CBD08958EBD0DB4C3
S11301C007FEFDCF8DB580688DBD08950E94C400E3
S11301D0BC0180E090E00E9435022EE037E34CED54
S11301E05DE30E94C3020E94060270930E016093B5
S11301F00D0108955C9A2FEF89EF90E02150804023
S11302009040E1F700C000005C980895AF92BF925F
S1130210CF92DF92EF92FF920F931F93CF93DF93CE
S113022010920B0110920A0180910A0190910B0126
S113023004970CF065C0DDECC1E000910A01109157
S11302400B01A0900D01B0900E0160910A01709114
S11302500B01072E000C880B990B0E9437029B019F
S1130260AC0160E070E080E291E40E9430036B0135
S11302707C01045F1E4FB50180E090E00E943502CE
S1130280A70196010E9494010E9406026D9F812D90
S11302901124869586958695880F982F990F990F26
S11302A0890F681BF8016083E0910A01F0910B014A
S11302B0E45FFE4FE081F0E0E050FF4F80810E9458
S11302C0DE0080910A0190910B010496FC2F01C07D
S11302D0FF0F8A95EAF78F2F0E94DE000E94FA0032
S11302E080910A0190910B01019690930B018093E8
S11302F00A0180910A0190910B0104970CF49DCF9F
S1130300DF91CF911F910F91FF90EF90DF90CF90ED
S1130310BF90AF9008950E94D6000E94BA000E9438
S1130320E6000E940601FBCF0E94A8010C948902FA
S11303300E94820258F00E947B0240F029F45F3F41
S113034029F00C94720251110C94BD020C947802A1
S11303500E949A0268F39923B1F3552391F3951BF4
S1130360550BBB27AA2762177307840738F09F5FD2
S11303705F4F220F331F441FAA1FA9F335D00E2E3F
S11303803AF0E0E832D091505040E695001CCAF7AC
S11303902BD0FE2F29D0660F771F881FBB1F26176F
S11303A037074807AB07B0E809F0BB0B802DBF0146
S11303B0FF2793585F4F3AF09E3F510578F00C9415
S11303C072020C94BD025F3FE4F3983ED4F3869529
S11303D077956795B795F7959F5FC9F7880F911D36
S11303E09695879597F90895E1E0660F771F881F22
S11303F0BB1F621773078407BA0720F0621B730BD5
S1130400840BBA0BEE1F88F7E09508950E94A202B0
S113041088F09F5798F0B92F9927B751B0F0E1F0C1
S1130420660F771F881F991F1AF0BA95C9F714C071
S1130430B13091F00E94BC02B1E008950C94BC026A
S1130440672F782F8827B85F39F0B93FCCF38695AA
S113045077956795B395D9F73EF490958095709507
S113046061957F4F8F4F9F4F0895E89409C097FB84
S11304703EF490958095709561957F4F8F4F9F4F77
S11304809923A9F0F92F96E9BB279395F6958795BB
S113049077956795B795F111F8CFFAF4BB0F11F47E
S11304A060FF1BC06F5F7F4F8F4F9F4F16C0882325
S11304B011F096E911C0772321F09EE8872F762F5B
S11304C005C0662371F096E8862F70E060E02AF09C
S11304D09A95660F771F881FDAF7880F9695879588
S11304E097F9089597F99F6780E870E060E00895B0
S11304F09FEF80EC089500240A9416161706180638
S11305000906089500240A94121613061406050613
S11305100895092E0394000C11F4882352F0BB0FA4
S113052040F4BF2B11F460FF04C06F5F7F4F8F4F07
S11305309F4F089557FD9058440F551F59F05F3F42
S113054071F04795880F97FB991F61F09F3F79F0F1
S113055087950895121613061406551FF2CF469573
S1130560F1DF08C0161617061806991FF1CF8695F5
S11305707105610508940895E894BB2766277727D9
S1130580CB0197F908950E94D6020C9489020E9427
S11305907B0238F00E94820220F0952311F00C9423
S11305A072020C94780211240C94BD020E949A02E7
S11305B070F3959FC1F3950F50E0551F629FF001B2
S11305C0729FBB27F00DB11D639FAA27F00DB11DCB
S11305D0AA1F649F6627B00DA11D661F829F222754
S11305E0B00DA11D621F739FB00DA11D621F839FDB
S11305F0A00D611D221F749F3327A00D611D231FB1
S1130600849F600D211D822F762F6A2F11249F57FE
S113061050409AF0F1F088234AF0EE0FFF1FBB1F01
S1130620661F771F881F91505040A9F79E3F5105C0
S113063080F00C9472020C94BD025F3FE4F3983E88
S1130640D4F3869577956795B795F795E7959F5F6A
S1130650C1F7FE2B880F911D9695879597F90895FC
S1130660FA01EE0FFF1F309621053105A1F1611546
S1130670710561F48038BFE39B0749F168949038B1
S1130680810561F08038BFEF9B0741F099234AF55B
S1130690FF3FE1053105210519F1E8940894E79538
S11306A0D901AA2329F4AB2FBE2FF85FD0F310C0D1
S11306B0FF5F70F4A695E0F7F73950F019F0FF3AB0
S11306C038F49F779F930DD00F9007FC90580895AE
S11306D046F00C94780260E070E080E89FE30895AF
S11306E04FE79F775F934F933F932F930E942B0481
S11306F02F913F914F915F910E94C3020C94880304
S113070029F416F00C9472020C94BC020C94780236
S11307100E94A202A8F39638A0F707F80F92E89473
S11307202BE33AEA48EB5FE70E94D9020F920F925B
S11307300F924DB75EB70F920E947304E4EBF0E0A2
S11307400E94BA034F915F91EF91FF91E595EE1FDF
S1130750FF1F49F0FE57E0684427EE0F441FFA9547
S1130760E1F74195550B0E94ED030F9007FE0C94A1
S1130770E1030895DF93CF931F930F93FF92EF92BA
S1130780DF927B018C01689406C0DA2EEF010E948F
S1130790D602FE01E894A591259135914591559194
S11307A0A6F3EF010E94BF04FE019701A801DA94A9
S11307B069F7DF90EF90FF900F911F91CF91DF9138
S11307C008959B01AC0160E070E080E89FE30C9425
S11307D094010C9472020C9414050E94A202D8F3A2
S11307E09923C9F3940F511DA3F39150504094F0F1
S11307F059F0882332F0660F771F881F91505040BC
S1130800C1F79E3F51052CF7880F911D969587954A
S113081097F908955F3FACF0983E9CF0BB2786950E
S113082077956795B79508F4B1609395C1F7BB0FB9
S113083058F711F460FFE8CF6F5F7F4F8F4F9F4FE2
S1130840E3CF0C94BD0216F00C9414050C947802BA
S113085068940C9472020E94A202A8F39923C1F333
S1130860AEF3DF93CF931F930F93FF92C92FDD272E
S113087088232AF02197660F771F881FDAF720E074
S113088030E040E85FEB9FE3883920F0803E38F0A9
S113089021968F770E94A804ECEDF0E004C00E943A
S11308A0A804E9E0F1E00E94BA038B01BE01EC0167
S11308B0FB2E6F5771097595771F880B990B0E9452
S11308C0370228E132E741E35FE30E94D602AF2D0D
S11308D09801AE01FF900F911F91CF91DF910E947B
S11308E0BF040C948902FA01DC01AA0FBB1F9B010F
S11308F0AC01BF5728F4222733274427507820C05F
S1130900B75190F4AB2F0024469537952795011CD9
S1130910A395D2F3002071F0220F331F441FB39527
S1130920DAF30ED00C94A70461307105A0E88A07AD
S1130930B94630F49B01AC01662777278827907865
S1130940309621F020833183428353830895505895
S1130950BB27AA270E94BF040C9489020E947B0231
S113096038F00E94820220F039F49F3F19F426F4F3
S11309700C9478020EF4E095E7FB0C947202E92FD4
S11309800E949A0258F3BA176207730784079507FF
S113099020F079F4A6F50C94BC020EF4E0950B2E2D
S11309A0BA2FA02D0B01B90190010C01CA01A001BD
S11309B01124FF27591B99F0593F50F4503E68F118
S11309C01A16F040A22F232F342F4427585FF3CF59
S11309D0469537952795A795F0405395C9F77EF42A
S11309E01F16BA0B620B730B840BBAF09150A1F073
S11309F0FF0FBB1F661F771F881FC2F70EC0BA0FF9
S1130A00621F731F841F48F4879577956795B79580
S1130A10F7959E3F08F0B0CF9395880F08F099277B
S1130A20EE0F9795879508959F3F31F0915020F4EC
S1130A30879577956795B795880F911D96958795B6
S10B0A4097F90895F894FFCF23
S10D0A48C0F9A4B0999282F88090DE
S9030000FC
